:020000040800F2
:1000000000500020D1170008250E0008270E000818
:10001000290E00082B0E00082D0E0008000000001D
:100020000000000000000000000000002F0E00088B
:10003000310E000800000000330E0008350E0008E5
:1000400019180008191800081918000819180008CC
:1000500019180008191800081918000819180008BC
:1000600019180008191800081918000819180008AC
:10007000191800081918000819180008191800089C
:10008000191800081918000819180008191800088C
:10009000191800081918000819180008191800087C
:1000A000191800081918000819180008191800086C
:1000B000191800081918000819180008191800085C
:1000C000191800081918000819180008191800084C
:1000D000191800081918000819180008191800083C
:1000E0001918000819180008191800080000000065
:1000F0000000000000000000000000000000000000
:0C01000000000000000000005FF808F1A3
:10010C0010B5054C237833B9044B13B10448AFF345
:10011C0000800123237010BD24000020000000008B
:10012C007418000808B5034B1BB103490348AFF31F
:10013C00008008BD00000000280000207418000892
:10014C0038B50E4B054618784FF47A73B3FBF0F3C1
:10015C000B4A1068B0FBF3F000F092F8044658B963
:10016C000F2D09D8024629464FF0FF3000F054F805
:10017C00044B20461D6038BD012038BD0000002016
:10018C000800002004000020074A08B5136803206B
:10019C0043F01003136000F02DF80020FFF7D0FFA0
:1001AC0000F0E6FD002008BD00200240034A044B8D
:1001BC0011681B780B441360704700BFC00000200F
:1001CC0000000020014B1868704700BFC0000020E1
:1001DC0038B50446FFF7F6FF0546631C1EBF044BFB
:1001EC001B78E418FFF7EEFF401B8442FAD838BDA9
:1001FC0000000020074A0002D36800F4E06023F4FA
:10020C00E0631B041B0C43F0BF6343F40033034354
:10021C00D360704700ED00E0174B30B5DC68C4F3D9
:10022C000224C4F10703251D042B28BF0423062D2B
:10023C004FF0010598BF002405FA03F303F1FF33D7
:10024C0088BF033C1940A14005FA04F4013C22404C
:10025C00002842EA01024FEA0212A9BF00F16040F5
:10026C00064BD2B200F56140BBBF00F00F00D2B21A
:10027C0080F800231A5430BD00ED00E014ED00E0CE
:10028C000138B0F1807F0AD2F021064B064A586043
:10029C0082F823100020072298601A607047012012
:1002AC00704700BF10E000E000ED00E02DE9F74FD3
:1002BC0000242646664BDFF8A8E1DFF8A8C10A68DF
:1002CC0032FA06F502D103B0BDE8F08F4FF0010809
:1002DC0008FA06F802EA080290457FD14D68122D03
:1002EC0000F0AA8000F28380022D00F0A28077D863
:1002FC00002D00F08980012D00F099804FF00F093E
:10030C00FF2A93BF824606F18045083DD0F800B025
:10031C0092BFB500D0F804B0AD0009FA05F82BEA8D
:10032C00080804FA05F588BF00F1040A48EA050537
:10033C00CAF80050D1F804A01AF0805F4ED0454D99
:10034C00444FAD6926F0030845F00105BD61BD6958
:10035C0008F1804805F00105019508F5803806F094
:10036C00030B019D4FEA8B0BD8F8085009FA0BF9D7
:10037C0025EA0909384DA84263D005F58065A842E5
:10038C0061D005F58065A8425FD005F58065A8426F
:10039C000CBF0325042505FA0BF545EA0905C8F839
:1003AC0008501D681AF4803F14BF154395431D6017
:1003BC005D681AF4003F14BF154395435D609D685A
:1003CC001AF4801F14BF154395439D60DD681AF421
:1003DC00001F14BF2A4325EA0202DA6001366EE7D9
:1003EC00032D22D0112D89D1CC68043486E71B4F04
:1003FC00BD4209D012D8DFF870904D4504D009F5F4
:10040C0080394D457FF47AAF8C68C4B1012C0CBF98
:10041C00C0F81080C0F8148008246FE77545F3D03D
:10042C006545F1D0DFF84490EBE7002466E7CC6833
:10043C0064E7CC68083461E7CC680C345EE70424CC
:10044C005CE70025A7E70125A5E70225A3E700BF88
:10045C00000401400010024000080140000021107F
:10046C0000003110000032100000111000002210AA
:10047C000AB1016170470904FBE7C3680B4214BF62
:10048C0041610161704700002DE9F341054608B94F
:10049C0001203CE00368DB0710D42B689F075DD478
:1004AC002B68190700F194802B685A0700F1BE8065
:1004BC00E869002840F02C81002028E08F4C63680C
:1004CC0003F00C03042B07D0636803F00C03082B18
:1004DC0009D16368DE0306D523689C03DDD56B6800
:1004EC00002BDAD1D4E76B68B3F5803F12D12368C7
:1004FC0043F480332360FFF765FE064623689803B8
:10050C00CBD4FFF75FFE801B6428F7D9032002B021
:10051C00BDE8F0819BB9236823F480332360236802
:10052C0023F480232360FFF74DFE064623689903CE
:10053C00B3D5FFF747FE801B6428F7D9E6E7B3F580
:10054C00A02F236803D143F480232360CFE723F447
:10055C0080332360236823F48023CBE7674C6368E4
:10056C0013F00C0F07D0636803F00C03082B10D1A9
:10057C006368DA030DD423689B0702D52B69012B22
:10058C0086D123686A6923F0F80343EAC203236027
:10059C0086E72A695A4B6AB101221A60FFF712FEEC
:1005AC00064623689F07ECD4FFF70CFE801B02283D
:1005BC00F7D9ABE71A60FFF705FE064623689807E4
:1005CC007FF56EAFFFF7FEFD801B0228F6D99DE785
:1005DC00AA694A4C4B4BDAB101221A60FFF7F2FDC3
:1005EC000646636A9B070DD54FF4FA52464B1B68BF
:1005FC00B3FBF2F3019300BF019B5A1E0192002B37
:10060C00F9D151E7FFF7DEFD801B0228E9D97DE720
:10061C001A60FFF7D7FD0646636A9F077FF544AF64
:10062C00FFF7D0FD801B0228F6D96FE7334CE36946
:10063C00D80024D40127E36943F08053E361E369D4
:10064C0003F080530093009B304E3368D90518D5C6
:10065C00EB68012B26D1236A43F001032362FFF7D9
:10066C00B1FD41F288368046236A9B073FD5002FA7
:10067C003FF41EAFE36923F08053E36118E70027D2
:10068C00E2E7336843F480733360FFF79BFD8046E9
:10069C003368DA05DCD4FFF795FDA0EB080064287D
:1006AC00F6D933E7ABB9236A41F2883823F001035A
:1006BC002362236A23F004032362FFF783FD0646BB
:1006CC00236A9807D3D5FFF77DFD801B4045F7D9EA
:1006DC001CE7052B236A03D143F004032362BAE71A
:1006EC0023F001032362236A23F00403B6E7FFF728
:1006FC0069FDA0EB0800B042B6D907E70010024034
:10070C000000424280044242080000200070004079
:10071C002A4B5A681C4602F00C02082A3DD00023D2
:10072C00274E022833602BD1FFF74CFD0746236878
:10073C0099011FD42B6AB3F5803F05D16268A96873
:10074C0022F400320A436260696A62680B4322F445
:10075C0074121343636001233360FFF733FD0546C6
:10076C0023689A013FF5A8AEFFF72CFD401B022829
:10077C00F6D9CBE6FFF726FDC01B0228D7D9C5E674
:10078C00FFF720FD054623689B017FF595AEFFF72B
:10079C0019FD401B0228F6D9B8E601283FF4B7AE84
:1007AC0058682B6A00F480329A427FF471AE6B6AFF
:1007BC0000F47010C01A18BF0120A8E60010024007
:1007CC006000424230B5194B87B002AC03F1100502
:1007DC00224618685968083303C2AB421446F7D155
:1007EC0001238DF80430022311498DF805304B6834
:1007FC0003F00C02082A17D1C3F3834206A8024463
:10080C00DB0312F8102C0CD54B680A48C3F3404399
:10081C00504306AA134413F8143CB0FBF3F007B092
:10082C0030BD05485043FAE70248F8E78C18000839
:10083C000010024000127A0000093D002DE9F04141
:10084C000D46044610B90120BDE8F081454A1368F5
:10085C0003F007038B4229D321688E0731D4CA07D2
:10086C0044D4404A136803F007039D4267D32268BF
:10087C003D4D12F0040F6ED1130706D56B6822693B
:10088C0023F4605343EAC2036B60FFF79BFF6B6872
:10089C00364AC3F30313D35CD840354B1860354B41
:1008AC001868FFF74DFC0020BDE8F081136823F0B9
:1008BC0007030B431360136803F007039942C2D17B
:1008CC00CAE7294B11F0040F1EBF5A6842F4E062CC
:1008DC005A60080742BF5A6842F460525A605A681C
:1008EC00A06822F0F00202435A60B8E762681E4E1C
:1008FC00012A33681BD113F4003FA4D0736841F272
:10090C00883823F0030313437360FFF75BFC07463F
:10091C007368626803F00C03B3EB820FA1D0FFF78E
:10092C0051FCC01B4045F3D90320BDE8F081022ADD
:10093C0002D113F0007FE0E713F0020FDDE713683C
:10094C0023F007032B431360136803F007039D4246
:10095C007FF479AF8BE76B68E16823F4E0630B43BA
:10096C006B6089E70020024000100240A3180008C9
:10097C000800002004000020F8B504460E46154679
:10098C001F4621688A6836EA020301D00020F8BDB0
:10099C006B1CF7D0FFF716FCC01B8542F1D82368FF
:1009AC005A6822F0E0025A606268B2F5827F0AD17E
:1009BC00A268B2F5004F02D0B2F5806F03D11A686D
:1009CC0022F040021A60A26AB2F5005F07D11A68E1
:1009DC0022F400521A601A6842F400521A60012381
:1009EC0084F851300023032084F85030F8BD10B542
:1009FC0013460A4680210446FFF7BEFF20B10320B0
:100A0C00636D43F02003636510BD10B504460028E8
:100A1C0034D00023836290F8513003F0FF021BB9ED
:100A2C0080F8502000F0C6F90223226884F8513077
:100A3C001368A06823F0400313606368A169034343
:100A4C00E06803432069034360690343E06903439F
:100A5C00206A0343A06A034301F40070090C0343AA
:100A6C0001F0040113605160D369002023F400638A
:100A7C00D3610123606584F8513010BD012010BD95
:100A8C002DE9F3411E4690F850300446012B0D46DB
:100A9C00904600F09C80012380F85030FFF792FBC9
:100AAC00074694F85100C0B2012840F08E80002D0A
:100ABC005ED0B8F1000F5BD00323002084F85130D6
:100ACC00A3686065A063A4F83680A087E0876064A3
:100ADC0020642068B3F5004F08BF0368256308BF86
:100AEC0043F48043A4F8348008BF036003685B06BA
:100AFC005EBF036843F040030360E368B3F5006F27
:100B0C0063683ED113B1B8F1010F07D135F8023B40
:100B1C00C3602563E38E013B9BB2E386E38E9BB2FD
:100B2C00A3B93A4631462046FFF761FF002849D168
:100B3C00A36833B901932368DA6801929B68019327
:100B4C00019B606D003018BF012011E02268936892
:100B5C00980705D5236B33F8021BD1602363D9E7C3
:100B6C00FFF730FBC01BB042D8D3711CD6D003208A
:100B7C00012384F85130002384F8503002B0BDE8D2
:100B8C00F08113B1B8F1010F08D12B780373236BEB
:100B9C0001332363E38E013B9BB2E386E38E9BB26E
:100BAC00002BBED023689A68920703D5226B12786B
:100BBC001A73ECE7FFF706FBC01B8642EED8731CDA
:100BCC00ECD0D4E720236365B2E70220D0E7022003
:100BDC00D4E790F85100704710B590B0282200214E
:100BEC0006A800F039FE0021142201A800F034FE02
:100BFC004FF480330122022407930E934FF4E01339
:100C0C0006A806920A920F930D94FFF73DFC0F2352
:100C1C004FF4806201930023214601A802940393B0
:100C2C0004920593FFF70AFE10B010BD80B58AB090
:100C3C00FFF7AAFAFFF7D0FF1022002106A800F058
:100C4C000BFE414B4FF400519A69404842F01002A0
:100C5C009A619A69002402F010020392039A9A692D
:100C6C00012642F020029A619A69022502F02002C4
:100C7C000492049A9A6942F008029A619B690022D4
:100C8C0003F008030593059BFFF7F2FB0022E0211C
:100C9C002F48FFF7EDFB4FF4005306A92B480693A2
:100CAC00079608940995FFF701FBE02306A928484D
:100CBC000693079608940995FFF7F8FA4FF4827398
:100CCC002448254A846080E80C004FF4007383614B
:100CDC000A23C460C36204614461C4610462446257
:100CEC008462FFF792FE1D4A1D491E4800F078FBF6
:100CFC0041211C4800F0ACFB6420FFF769FA134E4D
:100D0C00184C194D4FF400513046FFF7B6FB2046F6
:100D1C0000F090FB154F00220A2311460093114856
:100D2C007F2300F0E2FC3B46372214210D48A560DE
:100D3C0000F098FA0B4800F080FB0028EBD16420FF
:100D4C0000F0EDFCDEE700BF001002400010014097
:100D5C00000C0140C400002000380040351700088A
:100D6C000C0000201C010020F01800089C18000842
:100D7C000E4B82B09A6942F001029A619A6902F0B4
:100D8C0001020092009ADA6942F08052DA61DB6962
:100D9C00074A03F080530193019B536823F0E063EF
:100DAC0043F08063536002B0704700BF00100240F4
:100DBC000000014010B5044686B01022002102A8A4
:100DCC0000F04AFD2268124B9A421ED103F5EC3317
:100DDC00DA6902A942F48042DA61DA690D4802F458
:100DEC0080420092009A9A6942F008029A619B69CB
:100DFC0003F008030193019B4FF420430293022359
:100E0C00039303230593FFF751FA06B010BD00BFFF
:100E1C0000380040000C01407047FEE7FEE7FEE79B
:100E2C00FEE7704770477047FFF7C0B90F4B1A6861
:100E3C0042F001021A6059680D4A0A405A601A6859
:100E4C0022F0847222F480321A601A6822F4802212
:100E5C001A605A6822F4FE025A604FF41F029A601C
:100E6C004FF00062034B9A60704700BF00100240C5
:100E7C000000FFF800ED00E070B59DF8104090F810
:100E8C003B60013C14449642E4B290F839500FD3C5
:100E9C00AC4201D2A2420DD990F8382090F83A0019
:100EAC00013B0B448842DBB206D2934206D201E0EE
:100EBC00AC42EFD2002070BD934204D2994294BF51
:100ECC000020012070BD012070BD10B48C6800237F
:100EDC00A446012110BC604710B48C680023A446C2
:100EEC00032110BC6047002310B48C681A46A4463A
:100EFC00042110BC604710B48C680023A446012266
:100F0C00042110BC604710B48C680023A446022155
:100F1C0010BC604710B48C680023A446052110BC9B
:100F2C00604710B48C680621A44610BC6047F8B525
:100F3C0005460E46571E002017F8014F50B9FF2CDE
:100F4C0038D0224631462846FFF7E4FF0028F2D17C
:100F5C000020F8BDFF2CF4D0FE2CFAD0EF2CEAD8F0
:100F6C00DF2C06D904F00F0231462846FFF7CBFFE1
:100F7C00E1E7CF2C06D904F00F0231462846FFF7E3
:100F8C00ABFFD8E7BF2C12D92401023431462846D6
:100F9C0004F0FE04FFF7A7FF204600F0C0FB31462B
:100FAC002846FFF7A8FF204600F0B9FBC3E723064D
:100FBC00C1D4F8E70120BFE7012070472DE9F041CB
:100FCC001F46A2F10A0305460C4616460B2B0FD8FA
:100FDC00DFE803F0060E0E0E0E344F550E0E0E16F5
:100FEC000322FFF772FF284A21462846FFF79FFF8E
:100FFC003B46324621462846BDE8F04100F0F2BAA5
:10100C00D1F80480214AFFF792FF98F8042021467A
:10101C0042F0B0022846FFF77DFF01222146284608
:10102C00FFF771FF22462946404600F083FA40B391
:10103C00002221462846FFF74FFFD9E70122FFF790
:10104C004BFF002221462846FFF75DFF81222146F7
:10105C002846FFF75FFF3A78214692082846FFF7AB
:10106C0059FF002221462846FFF736FF0120BDE834
:10107C00F081074A21462846FFF759FFF6E7054A53
:10108C00F8E7BDE8F08100BFBB180008B3180008F2
:10109C00E4180008D81800084218435C507800EB9C
:1010AC00032080B2704700207047704708B5FFF7E7
:1010BC00FCFF18B1022801D0032008BD062008BD92
:1010CC000621FFF7E9BF0821FFF7E6BF807A7047DA
:1010DC00C07A70472DE9F84F8468054623788A4614
:1010EC001846FFF7E2FF07461846FFF7DFFF012F10
:1010FC008146204614BF4FF0FF084FF00F08FFF752
:10110C00E5FF06462046FFF7E3FF83462046FFF740
:10111C00DAFFBAF1600F0DD960B161262044D345D6
:10112C0015D200202877E87785F820006877A87713
:10113C00BDE8F88F2046FFF7C3FFBAF1400F03D983
:10114C0010B120444126EAE704F11100E7E75E45BF
:10115C00E7D80378FF2B05D101305E45E1D001368D
:10116C00F6B2F6E7564520D10FB1022F0BD1EB7733
:10117C00437885F82030C3782B7703796B774379E4
:10118C00AB77BDE8F88F03F00F02023A1B09AA7780
:10119C006B77437803F00F021B0985F82020EB775F
:1011AC0083781B092B77BDE8F88F837808EA030353
:1011BC004B441844D1E72DE9F04F0F4687B0194640
:1011CC0005461646FFF786FF0446002849D0AB6853
:1011DC001878FFF76BFF6B7F95F820A01F44AB7F4F
:1011EC00A6EB0A06F61A95F81F80FFB2F6B28146F6
:1011FC00CDF800A04346324639462846FFF73CFE60
:10120C0020B995F91C0007B0BDE8F08F4FF0000B2A
:10121C0008F10708C8F3C40807EBC803DBB2049352
:10122C004C445FFA8BF3F218D2B29A450592E8D986
:10123C00B94603940EE0039A494612F8013B28463E
:10124C0003920093059A002300F006F909F10809AE
:10125C005FFA89F9049B9945EDD144440BF1010BDC
:10126C00DFE7D0E72DE9F0411E46436A154680467C
:10127C000F46984700240544EDB2013E16F8013F95
:10128C0013B92046BDE8F08139462A464046FFF79F
:10129C0092FFC0B207440444FFB2E4B2EEE7000090
:1012AC00014B4362704700BFB310000810B40C68C8
:1012BC00A44610BC604738B504460D46436B02206B
:1012CC00984729460A2200232046FFF7EFFF0546E0
:1012DC00636B03209847636B00209847284638BD02
:1012EC0070B504460D46436B02209847636B012092
:1012FC0098472946002314222046FFF7D7FF04F114
:10130C003803294620461722FFF7D0FF636B0020D5
:10131C00BDE87040184770B504460E46436B02207A
:10132C009847636B012098470023152231462046CD
:10133C00FFF7BCFF054630B104F1380317223146E4
:10134C002046FFF7B3FF636B00209847284670BD1B
:10135C0007B502AB03F8012D0F22FFF7A7FF03B06F
:10136C005DF804FB07B546220DF10703FFF79EFF5E
:10137C009DF8070003B05DF804FB07B547220DF19B
:10138C000703FFF793FF9DF8070003B05DF804FB1C
:10139C0000234822FFF78ABF10B541680446FFF7C7
:1013AC00E1FF616820702046FFF7E7FF616860701D
:1013BC002046FFF7EDFF04F13803E0746168204626
:1013CC00BDE810401722FFF771BF10B54168044605
:1013DC00FFF771FF18B12046FFF7DEFF012010BDAB
:1013EC002DE9F0412223002501268560C560457456
:1013FC0006748374856180F8316004460F4690460C
:10140C00FFF74EFF402384F82B30094B84F82860FB
:10141C0084F8295084F82A5084F82C506363676050
:10142C002046C7F80880BDE8F041FFF7CEBF00BFEB
:10143C00291700084168FFF753BF836910B50446AC
:10144C0003B1984761682046BDE81040FFF763BFC1
:10145C000A464168FFF77CBF70B49DF80C60456884
:10146C0080F82D1080F82E2080F8303080F82F6016
:10147C00294670BC00F12D033B22FFF717BF002259
:10148C0003788270013BC3700271704710B581788C
:10149C00027844781144C9B2A14281700DD203790B
:1014AC0001330371C3781344DBB29C429CBF04F13B
:1014BC00FF33DBB2C370012010BD002010BD002132
:1014CC00836842791A4403F8011B9A42FBD1704796
:1014DC0010B5C37884788B4234BF0023012391422A
:1014EC0094BF0021012143EA010094428CBF0020EB
:1014FC0000F001000B40184310BD00230B708378E3
:10150C004B704379013B8B70C378CB707047CA78B2
:10151C004B78012A03D0032A07D01A4602E003F1C4
:10152C000802D2B21946FFF7D3BFA3F108011A463D
:10153C00CBB2F7E710B40C468368114642792046CB
:10154C0010BCFFF7EEBC10B584688078101A01222D
:10155C0000F007008240D2B2605C13B102436254C7
:10156C0010BD20EA0202FAE710B40B464A788178E3
:10157C0091420AD8C178914207D3197844798C42A8
:10158C0003D91B7910BCFFF7DEBF10BC70472DE9E7
:10159C00F041CB7880460C468D78032B1FD8DFE8C2
:1015AC0003F00216191C002601272B0603D5214631
:1015BC004046FFF7D9FF23786D003B4423706378D6
:1015CC0015F0FF0533446370EFD1BDE8F0810126BF
:1015DC000027EAE70026FF27E7E7FF26F8E70026C3
:1015EC003746E2E7322A38B51D464C681ED00CD877
:1015FC00152A20D0172A27D0142A15D12046FFF7F8
:10160C005EFF2046FFF73BFF0EE0462A21D0472A1B
:10161C0022D03B2A08D119462046FFF778FF18B193
:10162C0029462046FFF7B3FF012038BD1946204656
:10163C00FFF79AFFF8E72046FFF728FF0028F4D0C1
:10164C002046FFF73CFFEFE719462046FFF755FF12
:10165C00EAE763792B70E7E76378FBE72DE9F7435B
:10166C0006460D4617461C464FF0FF0923F00708A7
:10167C0088445FFA88F8454515D114F007040FD05B
:10168C00FF2384F00704013404F0070403FA04F484
:10169C00E4B2009400233A4629463046FFF7DCFEBC
:1016AC0003B0BDE8F0832946CDF8009000233A46FC
:1016BC0030460835FFF7D0FEEDB2DCE72DE9F843F4
:1016CC0006460F469146984600249DF8205009EB9B
:1016DC0004024346D2B2394630460134FFF7BEFF0E
:1016EC00E3B29D42F3D1BDE8F8832DE9F3419DF8B7
:1016FC002040054600940E4617469846FFF7BCFB63
:10170C0048B143463A4631462846089402B0BDE8F3
:10171C00F041FFF7D3BF02B0BDE8F0817047FEF790
:10172C0057BD0120FEF754BD13B5013918468DF88D
:10173C00072006290FD8DFE801F00C04111C223118
:10174C003100FFF7EEFF80219DF807201B48FEF7C4
:10175C008FFEFFF7E6FF012002B010BD9DF80730A9
:10176C002BB90120FEF734FD01222021EEE70022E7
:10177C00FBE7FFF7D6FF9DF807204021E6E742F292
:10178C00107301220DF107010D48FFF779F90C4C8C
:10179C002046FFF71EFA0128FAD1DAE7014642F299
:1017AC0010739DF807200648FFF76AF9044C204691
:1017BC00FFF70FFA0128FAD1CBE700BF000C01406C
:1017CC00C4000020002103E00B4B5B584350043154
:1017DC000A480B4B42189A42F6D30A4A02E00023FD
:1017EC0042F8043B084B9A42F9D3FFF71FFB00F079
:1017FC000FF8FFF71BFA704730320008000000208A
:10180C00240000202400002058010020FEE70000E6
:10181C0070B500250C4E0D4CA41BA410A54209D18B
:10182C0000F022F800250A4E0A4CA41BA410A54275
:10183C0005D170BD56F8253098470135EEE756F8BE
:10184C00253098470135F2E7283200082832000885
:10185C00283200082C32000803460244934200D17F
:10186C00704703F8011BF9E7F8B500BFF8BC08BCDA
:10187C009E467047F8B500BFF8BC08BC9E46704742
:10188C0002030405060708090A0B0C0D0E0F1010B5
:10189C00576F726B73210000000000000000000104
:1018AC0002030406070809FFE0FFD11000FFFEFF4A
:1018BC00D0FFE0FFC1FFD140A1C0A6A22FF80027A6
:1018CC008118AC00A4AFFF32FFD0FFFEFFE0FFD1C8
:1018DC00A4AFFF32FFD0FFFEFFE0FFD1AC00AEA5FE
:1018EC00FFD0FFFE000C1500FC0E0375077120FFE6
:1018FC00FC12FC10FC0000000C0000020E0E0C048C
:10190C0000C0C0C0C0C0C0C0C0C0C00000C0C006C5
:10191C0006060C020ACCCCCCCCCCCC0A0A140C009B
:10192C000433003300FFC0FFC033003300FFC0FF9F
:10193C00C0330033000A12240C00FE0C000C003FD4
:10194C00007F80EDC0CCC0CC00EC007F003F800D50
:10195C00C00CC0CCC0EDC07F803F000C000C000A56
:10196C000E1C0C00003FC07FC0CCC0CDC0CF80CFC0
:10197C00007F003F803CC07CC0ECC0CCC0C780C3A3
:10198C00000A0E1C0C00003E007F00E300C700CED6
:10199C0000FC0078007800FCC0CFC0C780E7807FD7
:1019AC00C03CC00206060C040AC0C0C0C0C0C006C1
:1019BC0012120C02FE0C1C3870E0C0C0C0C0C0C0BB
:1019CC00C0C0E070381C0C0612120C02FEC0E07095
:1019DC00381C0C0C0C0C0C0C0C0C1C3870E0C00AD9
:1019EC000A140C00040C000C00CCC0FFC03F003FDC
:1019FC0000FFC0CCC00C000C000A0A140C00020C36
:101A0C00000C000C000C00FFC0FFC00C000C000C04
:101A1C00000C000509090C02FC3078783818387075
:101A2C00E0400602020C0206FCFC0404040C030158
:101A3C0060F0F0600B14280C00FC0060006000C02B
:101A4C0000C00180018003000300060006000C00AA
:101A5C000C00180018003000300060006000C0005E
:101A6C00C0000A0E1C0C00003F007F80E1C0C1C00A
:101A7C00C3C0C7C0CEC0DCC0F8C0F0C0E0C0E1C07D
:101A8C007F803F000A0E1C0C00000C000C007C0038
:101A9C007C000C000C000C000C000C000C000C006A
:101AAC000C00FFC0FFC00A0E1C0C00003F007F8022
:101ABC00E1C0C0C000C001C0038007000E001C00C4
:101ACC0038007000FFC0FFC00A0E1C0C00003F0065
:101ADC007F80E1C0C0C000C001800F000F8001C03A
:101AEC0000C0C0C0E1C07F803F000A0E1C0C00008B
:101AFC00030007000F001F003B007300E300C3004E
:101B0C00FFC0FFC0030003000FC00FC00A0E1C0C67
:101B1C000000FFC0FFC0C000C000FF00FF8001C07C
:101B2C0000C000C000C0C0C0E1C07F803F000A0EF2
:101B3C001C0C00003F007F00E000C000FF00FF8095
:101B4C00C1C0C0C0C0C0C0C0C0C0E1C07F803F0029
:101B5C000A0E1C0C0000FFC0FFC000C000C000C07B
:101B6C0001C0038007000E000C000C000C000C00E0
:101B7C000C000A0E1C0C00003F007F80E1C0C0C0AE
:101B8C00C0C061803F007F80E1C0C0C0C0C0E1C068
:101B9C007F803F000A0E1C0C00003F007F80E1C0DC
:101BAC00C0C0C0C0C0C0C0C0E0C07FC03FC000C08B
:101BBC0001C03F803F00040A0A0C030160F0F06092
:101BCC00000060F0F060050F0F0C02FC30787830EC
:101BDC00000030787838183870E040080E0E0C028F
:101BEC000003070E1C3870E0E070381C0E07030A67
:101BFC00060C0C0004FFC0FFC000000000FFC0FF7B
:101C0C00C0080E0E0C0200C0E070381C0E07070E48
:101C1C001C3870E0C00A0E1C0C00003F007F80E1F5
:101C2C00C0C0C000C001C0038007000E000C000043
:101C3C000000000C000C000A0E1C0C00003F007F82
:101C4C0080E1C0C0C0C7C0CFC0CCC0CCC0CFC0C763
:101C5C0080C000E0007FC03FC00A0E1C0C00000CCE
:101C6C00001E001E003300330061806180C0C0FF85
:101C7C00C0FFC0C0C0C0C0C0C0C0C00A0E1C0C0099
:101C8C0000FF00FF80C1C0C0C0C0C0C180FF00FF0A
:101C9C0080C1C0C0C0C0C0C1C0FF80FF000A0E1C04
:101CAC000C00003F007F80E1C0C0C0C000C000C07D
:101CBC0000C000C000C000C0C0E1C07F803F000A6F
:101CCC000E1C0C0000FF00FF80C1C0C0C0C0C0C013
:101CDC00C0C0C0C0C0C0C0C0C0C0C0C1C0FF80FFB9
:101CEC00000A0E1C0C0000FFC0FFC0C000C000C0EA
:101CFC0000C000FF00FF00C000C000C000C000FF1B
:101D0C00C0FFC00A0E1C0C0000FFC0FFC0C000C00A
:101D1C0000C000C000FF00FF00C000C000C000C039
:101D2C0000C000C0000A0E1C0C00003F007F80E1C8
:101D3C00C0C0C0C000C000C3C0C3C0C0C0C0C0C011
:101D4C00C0E1C07F803F000A0E1C0C0000C0C0C068
:101D5C00C0C0C0C0C0C0C0C0C0FFC0FFC0C0C0C0F9
:101D6C00C0C0C0C0C0C0C0C0C00A0E1C0C0000FF68
:101D7C00C0FFC00C000C000C000C000C000C000C84
:101D8C00000C000C000C00FFC0FFC00A0E1C0C0065
:101D9C000000C000C000C000C000C000C000C000F7
:101DAC00C0C0C0C0C0C0C0E1C07F803F000A0E1CD4
:101DBC000C0000C1C0C380C700CE00DC00F800F0EE
:101DCC0000F800DC00CE00C700C380C1C0C0C00A50
:101DDC000E1C0C0000C000C000C000C000C000C041
:101DEC0000C000C000C000C000C000C000FFC0FFA9
:101DFC00C00A0E1C0C0000C0C0E1C0F3C0FFC0DE66
:101E0C00C0CCC0CCC0CCC0C0C0C0C0C0C0C0C0C0A2
:101E1C00C0C0C00A0E1C0C0000C0C0E0C0F0C0F86E
:101E2C00C0DCC0CEC0C7C0C3C0C1C0C0C0C0C0C071
:101E3C00C0C0C0C0C00A0E1C0C00003F007F80E177
:101E4C00C0C0C0C0C0C0C0C0C0C0C0C0C0C0C0C086
:101E5C00C0E1C07F803F000A0E1C0C0000FF00FF99
:101E6C0080C1C0C0C0C0C0C1C0FF80FF00C000C0E6
:101E7C0000C000C000C000C0000A10200C00FE3FD3
:101E8C00007F80E1C0C0C0C0C0C0C0C0C0C0C0C066
:101E9C00C0C0C0CCC0EFC07F803F8001C000C00A72
:101EAC000E1C0C0000FF00FF80C1C0C0C0C0C0C130
:101EBC0080FF00FF80C1C0C0C0C0C0C0C0C0C0C0D7
:101ECC00C00A0E1C0C00003F007F80E1C0C0C0C0E7
:101EDC0000E0007F003F8001C000C0C0C0E1C07FB7
:101EEC00803F000A0E1C0C0000FFC0FFC00C000C51
:101EFC00000C000C000C000C000C000C000C000C76
:101F0C00000C000C000A0E1C0C0000C0C0C0C0C0AD
:101F1C00C0C0C0C0C0C0C0C0C0C0C0C0C0C0C0C0B5
:101F2C00C0E1C07F803F000A0E1C0C0000C0C0C086
:101F3C00C0C0C0C0C0C0C0C0C061806180330033AD
:101F4C00001E001E000C000C000A0E1C0C0000C031
:101F5C00C0C0C0C0C0C0C0C0C0C0C0CCC0CCC0CC51
:101F6C00C0DEC0FFC0F3C0E1C0C0C00A0E1C0C0034
:101F7C0000C0C0C0C0C0C0E1C073803F001E001EC6
:101F8C00003F007380E1C0C0C0C0C0C0C00A0E1CBE
:101F9C000C0000C0C0C0C0C0C0C0C0C0C0E1C07395
:101FAC00803F001E000C000C000C000C000C000A02
:101FBC000E1C0C0000FFC0FFC000C001C003800756
:101FCC00000E001C0038007000E000C000FFC0FFD5
:101FDC00C00412120C04FEF0F0C0C0C0C0C0C0C0DF
:101FEC00C0C0C0C0C0C0C0F0F00B14280C01FCC0B5
:101FFC0000C0006000600030003000180018000CB9
:10200C00000C0006000600030003000180018000A4
:10201C00C000C0006000600412120C02FEF0F03030
:10202C0030303030303030303030303030F0F00A4A
:10203C00060C0C00080C001E003F007380E1C04031
:10204C00800C02040C00FCFFF0FFF00404040C02F2
:10205C000CC0E070300A0A140C00003FC07FC0E0D6
:10206C00C0C0C0C0C0C1C0C3C0E7C07EC03CC00AB5
:10207C000E1C0C0000C000C000C000C000FF00FF20
:10208C0080C1C0C0C0C0C0C0C0C0C0C1C0FF80FF44
:10209C00000A0A140C00003F007F80E1C0C0C0C0E1
:1020AC0000C000C000E0007FC03FC00A0E1C0C0046
:1020BC000000C000C000C000C03FC07FC0E0C0C076
:1020CC00C0C0C0C0C0C0C0E0C07FC03FC00A0A14BE
:1020DC000C00003F007F80E1C0C0C0FFC0FFC0C04B
:1020EC0000E0007FC03FC0080E0E0C02000F1F382E
:1020FC0030FCFC30303030303030300A0E1C0C00EC
:10210C00FC3FC07FC0E0C0C0C0C0C0C0C0C0C0E009
:10211C00C07FC03FC000C001C03F803F000A0E1C02
:10212C000C0000C000C000C000C000FF00FF80C158
:10213C00C0C0C0C0C0C0C0C0C0C0C0C0C0C0C0064D
:10214C000E0E0C020030300000F0F0303030303029
:10215C0030FCFC0612120C00FC0C0C00003C3C0C7D
:10216C000C0C0C0C0C0C0C0C1CF8F00A0E1C0C00BF
:10217C0000C000C000C000C000C380C700CE00DC9F
:10218C0000FC00FE00E700C380C1C0C0C0060E0EFC
:10219C000C0200F0F030303030303030303030FC69
:1021AC00FC0A0A140C0000FF00FF80CDC0CCC0CC90
:1021BC00C0CCC0CCC0CCC0CCC0CCC00A0A140C0063
:1021CC0000CF00DF80F9C0F0C0E0C0C0C0C0C0C00C
:1021DC00C0C0C0C0C00A0A140C00003F007F80E1E0
:1021EC00C0C0C0C0C0C0C0C0C0E1C07F803F000A3A
:1021FC000E1C0C00FCFF00FF80C1C0C0C0C0C0C0E2
:10220C00C0C0C0C1C0FF80FF00C000C000C000C083
:10221C00000A0E1C0C00FC3FC07FC0E0C0C0C0C058
:10222C00C0C0C0C0C0E0C07FC03FC000C000C00084
:10223C00C000C00A0A140C0000CF00DF80F9C0F007
:10224C00C0E000C000C000C000C000C0000A0A14FA
:10225C000C00003FC07FC0C000C0007F003F80006A
:10226C00C000C0FF80FF00080E0E0C0200303030A2
:10227C0030FCFC3030303030381F0F0A0A140C00A0
:10228C0000C0C0C0C0C0C0C0C0C0C0C1C0C3C0E7D7
:10229C00C07EC03CC00A0A140C0000C0C0C0C0C044
:1022AC00C061806180338033001E001E000C000A68
:1022BC000A140C0000CCC0CCC0CCC0CCC0CCC0CC60
:1022CC00C0CCC0CCC07F8033000A0A140C0000C004
:1022DC00C0E1C073803F001E001E003F007380E110
:1022EC00C0C0C00A0E1C0C00FCC0C0C0C0C0C0C026
:1022FC00C0C0C0C0C0C0C0E0C07FC03FC000C001F3
:10230C00C03F803F000A0A140C0000FFC0FFC0034E
:10231C008007000E001C0038007000FFC0FFC006D4
:10232C0016160C02FC0C1C3830303030303070E09B
:10233C00E070303030303030381C0C0212120C048B
:10234C00FEC0C0C0C0C0C0C0C0C0C0C0C0C0C0C043
:10235C00C0C0C00616160C02FCC0E0703030303025
:10236C003030381C1C3830303030303070E0C00A1F
:10237C0004080C000630C07CC0CF80C300000000F5
:10238C000C00000000000C00000000000C00000419
:10239C0007070C00FD3030303070E0400A162C0C72
:1023AC0000FC03C007C00E000C000C000C000C005D
:1023BC000C003F003F000C000C000C000C000C004B
:1023CC000C000C000C000C001C00F800F0000807BE
:1023DC00070C00FD3333333377EE440A02040C0050
:1023EC0000CCC0CCC0060A0A0C02043030FCFC3015
:1023FC003030303030060A0A0C02043030FCFC302D
:10240C0030FCFC30300604040C020C3078FCCC0C94
:10241C0010200C00003FF07FF0CCE0CDC0CF80CF7F
:10242C00007E003C003CC07FE0F330F330B330332F
:10243C00301FE00CC00A12240C000033003F001EB9
:10244C00000C003F007F80E1C0C0C0C000E0007FF6
:10245C00003F8001C000C0C0C0E1C07F803F0004CD
:10246C000A0A0C00FF307060E0C0C0E06070300AF7
:10247C000E1C0C00003FC07FC0EC00CC00CC00CC8C
:10248C0000CF00CF00CC00CC00CC00EC007FC03FD4
:10249C00C00000000C00000000000C000000000058
:1024AC000C00000000000C00000407070C040820BE
:1024BC0070E0C0C0C0C00407070C040730303030D7
:1024CC0070E0400807070C02082277EECCCCCCCC8D
:1024DC000807070C02073333333377EE440A0A1428
:1024EC000C00021E007F807F80FFC0FFC0FFC0FF7A
:1024FC00C07F807F801E000602020C0206FCFC0CD2
:10250C0002040C0006FFF0FFF00A04080C000C306B
:10251C00C07CC0CF80C3000C060C0C0008FF30FF41
:10252C00F033F033F0333033300A10200C0000332A
:10253C00003F001E000C00000000003FC07FC0C028
:10254C0000C0007F003F8000C000C0FF80FF00047F
:10255C000A0A0C00FFC0E0607030307060E0C00A06
:10256C000A140C000033007F80CCC0CCC0CFC0CF8D
:10257C00C0CC00CC007FC033C00000000C000000B9
:10258C0000000C00000A12240C0000330033000081
:10259C00000000C0C0C0C0C0C0C0C0C0C0E1C0739B
:1025AC00803F001E000C000C000C000C000C000006
:1025BC0000000C0000020E0E0C0600C0C00000C093
:1025CC00C0C0C0C0C0C0C0C0C00A0E1C0C00FE0CF5
:1025DC00000C003F007F80EDC0CCC0CC00CC00CC08
:1025EC0000EC007FC03FC00C000C000A10200C0057
:1025FC00003C007E00E700C300C000C000FC00FCF3
:10260C0000C000C000C000C000C0C0C1C0FF80FF3F
:10261C00000A0A140C00004080E1C07F803F0033A8
:10262C000033003F007F80E1C040800A0E1C0C008C
:10263C0000C0C0E1C073803F00FFC0FFC00C000CA5
:10264C0000FFC0FFC00C000C000C000C00021212AA
:10265C000C04FEC0C0C0C0C0C0C0C00000C0C0C020
:10266C00C0C0C0C0C00A14280C00FE1F007F8061CF
:10267C00C0E0C070C038C0DC00CE00C700E3807181
:10268C00C038C01CC00EC0C700C380C1C0E1807F71
:10269C00803E000602020C020CCCCC0A0E1C0C0074
:1026AC00007800FE00870001803D807CC0C0C0C067
:1026BC00C07CC03D8001808700FE007800080C0CB7
:1026CC000C02063F7FE3C3C3E37F3F0000FFFF0A1A
:1026DC000A140C00FF30C071C06180E380C300C3DA
:1026EC0000E380618071C030C00A060C0C0002FF50
:1026FC00C0FFC000C000C000C000C00A02040C0033
:10270C0006FFC0FFC00A0C180C00027800FE008700
:10271C00000180F180F8C0CCC0CCC0F8C0F9C0DF9B
:10272C0080CF000602020C020CFCFC0808080C020C
:10273C00083C7EE7C3C3E77E3C0A0C180C00000C77
:10274C00000C000C000C00FFC0FFC00C000C000CB7
:10275C00000C00FFC0FFC00507070C030B708808B6
:10276C00102040F80507070C030B70880830088808
:10277C00700404040C040C3070E0C00A0E1C0C0035
:10278C00FCC300C300C300C300C300C300C300C725
:10279C0080FFC0FCC0C000C000C000C0000A1020F8
:1027AC000C00001FC07FC07CC0ECC0CCC0CCC0EC07
:1027BC00C07CC07FC01FC00CC00CC00CC00CC00CB7
:1027CC00C00CC00404040C040460F0F060040606A1
:1027DC000C02FCF0F03070E0400507070C030B20F6
:1027EC00E020202020F8080C0C0C02063C7EE7C3ED
:1027FC00C3E77E3C0000FFFF0A0A140C00FFC30075
:10280C00E380618071C030C030C071C06180E380F2
:10281C00C3000C12240C00001000700010001000FB
:10282C00101010207C4000800100020004000840C1
:10283C0010C02140424083E0004000E00C12240C08
:10284C0000001000700010001000101010207C40D0
:10285C00008001000200040009C01220202040402A
:10286C008080010003E00C12240C000038004400AE
:10287C0004001800041044203840008001000200BD
:10288C000400084010C02140424083E0004000E0BA
:10289C000A0E1C0C00000C000C00000000000C00C8
:1028AC001C0038007000E000C000C0C0E1C07F8098
:1028BC003F000A12240C0000300038001C000C00F1
:1028CC000C001E001E003300330061806180C0C00C
:1028DC00FFC0FFC0C0C0C0C0C0C0C0C00A12240C22
:1028EC000000030007000E000C000C001E001E0070
:1028FC003300330061806180C0C0FFC0FFC0C0C026
:10290C00C0C0C0C0C0C00A12240C00000C001E00C5
:10291C003F0033000C001E001E00330033006180AA
:10292C006180C0C0FFC0FFC0C0C0C0C0C0C0C0C0BC
:10293C000A12240C000030C07CC0CF80C3000C00F5
:10294C001E001E003300330061806180C0C0FFC0D8
:10295C00FFC0C0C0C0C0C0C0C0C00A12240C000060
:10296C0033003300000000000C001E001E0033007A
:10297C00330061806180C0C0FFC0FFC0C0C0C0C058
:10298C00C0C0C0C00A12240C00000C001E00330092
:10299C0033001E001E001E00330033006180618076
:1029AC00C0C0FFC0FFC0C0C0C0C0C0C0C0C00A0E05
:1029BC001C0C00003FC07FC0EC00CC00CC00CC0055
:1029CC00FF00FF00CC00CC00CC00CC00CFC0CFC0AF
:1029DC000A12240C00FC3F007F80E1C0C0C0C00084
:1029EC00C000C000C000C000C000C0C0E1C07F80FB
:1029FC003F000C001C00380010000A12240C0000D0
:102A0C00300038001C000C00FFC0FFC0C000C0002C
:102A1C00C000C000FF00FF00C000C000C000C0002C
:102A2C00FFC0FFC00A12240C0000030007000E00B8
:102A3C000C00FFC0FFC0C000C000C000C000FF0001
:102A4C00FF00C000C000C000C000FFC0FFC00A12E1
:102A5C00240C00000C001E003F003300FFC0FFC020
:102A6C00C000C000C000C000FF00FF00C000C000DC
:102A7C00C000C000FFC0FFC00A12240C00003300CD
:102A8C00330000000000FFC0FFC0C000C000C00049
:102A9C00C000FF00FF00C000C000C000C000FFC0AD
:102AAC00FFC00A12240C0000300038001C000C007F
:102ABC00FFC0FFC00C000C000C000C000C000C0044
:102ACC000C000C000C000C00FFC0FFC00A12240C00
:102ADC000000030007000E000C00FFC0FFC00C003C
:102AEC000C000C000C000C000C000C000C000C007A
:102AFC000C00FFC0FFC00A12240C00000C001E00CA
:102B0C003F003300FFC0FFC00C000C000C000C0099
:102B1C000C000C000C000C000C000C00FFC0FFC0E3
:102B2C000A12240C00003300330000000000FFC028
:102B3C00FFC00C000C000C000C000C000C000C0076
:102B4C000C000C000C00FFC0FFC00A0E1C0C000097
:102B5C003F003F8031C030C030C030C0FCC0FCC032
:102B6C0030C030C030C031C03F803F000A12240C4E
:102B7C00000030C07CC0CF80C700C0C0E0C0F0C037
:102B8C00F8C0DCC0CEC0C7C0C3C0C1C0C0C0C0C0CC
:102B9C00C0C0C0C0C0C00A12240C000030003800F5
:102BAC001C000C003F007F80E1C0C0C0C0C0C0C092
:102BBC00C0C0C0C0C0C0C0C0C0C0E1C07F803F00AA
:102BCC000A12240C0000030007000E000C003F004A
:102BDC007F80E1C0C0C0C0C0C0C0C0C0C0C0C0C049
:102BEC00C0C0C0C0E1C07F803F000A12240C0000AE
:102BFC000C001E003F00330000003F007F80E1C04E
:102C0C00C0C0C0C0C0C0C0C0C0C0C0C0C0C0E1C097
:102C1C007F803F000A12240C000030C07CC0CF80A3
:102C2C00C7003F007F80E1C0C0C0C0C0C0C0C0C0F2
:102C3C00C0C0C0C0C0C0C0C0E1C07F803F000A128D
:102C4C00240C000033003300000000003F007F80A4
:102C5C00E1C0C0C0C0C0C0C0C0C0C0C0C0C0C0C047
:102C6C00C0C0E1C07F803F000A0A140C0002408003
:102C7C00E1C073803F001E001E003F007380E1C066
:102C8C0040800A0E1C0C00003F007F80E1C0C1C0D8
:102C9C00C3C0C7C0CEC0DCC0F8C0F0C0E0C0E1C04B
:102CAC007F803F000A12240C0000300038001C000A
:102CBC000C00C0C0C0C0C0C0C0C0C0C0C0C0C0C07C
:102CCC00C0C0C0C0C0C0C0C0E1C07F803F000A12FD
:102CDC00240C0000030007000E000C00C0C0C0C094
:102CEC00C0C0C0C0C0C0C0C0C0C0C0C0C0C0C0C0D8
:102CFC00C0C0E1C07F803F000A12240C00000C0011
:102D0C001E003F0033000000C0C0C0C0C0C0C0C027
:102D1C00C0C0C0C0C0C0C0C0C0C0C0C0E1C07F8007
:102D2C003F000A12240C00003300330000000000A6
:102D3C00C0C0C0C0C0C0C0C0C0C0C0C0C0C0C0C087
:102D4C00C0C0C0C0C0C0E1C07F803F000A12240CCC
:102D5C000000030007000E000C00C0C0C0C0C0C0C3
:102D6C00C0C0C0C0E1C073803F001E000C000C004E
:102D7C000C000C000C000A0E1C0C0000C000C00063
:102D8C00FF00FF80C1C0C0C0C0C0C1C0FF80FF0039
:102D9C00C000C000C000C0000A12240C00FE0F00CE
:102DAC001F8039C070C0E0C0C1C0C380C300C30065
:102DBC00C380C1C0C0C0C0C0C1C0CF80CF00C000E4
:102DCC00C0000A10200C00000C000E0007000300CD
:102DDC00000000003FC07FC0E0C0C0C0C0C0C1C088
:102DEC00C3C0E7C07EC03CC00A10200C000003002A
:102DFC0007000E000C00000000003FC07FC0E0C0C8
:102E0C00C0C0C0C0C1C0C3C0E7C07EC03CC00A10B7
:102E1C00200C00000C001E003F00330000000000DE
:102E2C003FC07FC0E0C0C0C0C0C0C1C0C3C0E7C00D
:102E3C007EC03CC00A10200C000030C07CC0CF808B
:102E4C00C700000000003FC07FC0E0C0C0C0C0C0D1
:102E5C00C1C0C3C0E7C07EC03CC00A0E1C0C000041
:102E6C0033003300000000003FC07FC0E0C0C0C092
:102E7C00C0C0C1C0C3C0E7C07EC03CC00A10200C9B
:102E8C0000000C001E00330033001E000C003FC07D
:102E9C007FC0E0C0C0C0C0C0C1C0C3C0E7C07EC05E
:102EAC003CC00A0A140C00003F007F80EDC0CCC06F
:102EBC00CFC0CFC0CC00EC007FC03FC00A0E1C0CB2
:102ECC0000FC3F007F80E1C0C0C0C000C000C0005B
:102EDC00E0007FC03FC00C001C00380010000A103E
:102EEC00200C0000300038001C000C00000000001A
:102EFC003F007F80E1C0C0C0FFC0FFC0C000E00049
:102F0C007FC03FC00A10200C0000030007000E0019
:102F1C000C00000000003F007F80E1C0C0C0FFC07B
:102F2C00FFC0C000E0007FC03FC00A10200C0000B2
:102F3C000C001E003F003300000000003F007F80AB
:102F4C00E1C0C0C0FFC0FFC0C000E0007FC03FC0F8
:102F5C000A0E1C0C000033003300000000003F0080
:102F6C007F80E1C0C0C0FFC0FFC0C000E0007FC0D8
:102F7C003FC00610100C0200C0E070300000F0F0F2
:102F8C00303030303030FCFC0610100C02000C1CC1
:102F9C0038300000F0F0303030303030FCFC0610AF
:102FAC00100C02003078FCCC0000F0F030303030E7
:102FBC003030FCFC060E0E0C0200CCCC0000F0F005
:102FCC00303030303030FCFC0A11220C0000240070
:102FDC007E003C003C007E00270003803FC07FC089
:102FEC00E1C0C0C0C0C0C0C0C0C0E1C07F803F0055
:102FFC000A10200C000030C07CC0CF80C70000003D
:10300C000000CF00DF80F9C0F0C0E0C0C0C0C0C07D
:10301C00C0C0C0C0C0C00A10200C00003000380076
:10302C001C000C00000000003F007F80E1C0C0C00D
:10303C00C0C0C0C0C0C0E1C07F803F000A10200CDF
:10304C000000030007000E000C00000000003F0011
:10305C007F80E1C0C0C0C0C0C0C0C0C0E1C07F8024
:10306C003F000A10200C00000C001E003F00330033
:10307C00000000003F007F80E1C0C0C0C0C0C0C0E5
:10308C00C0C0E1C07F803F000A10200C000030C09F
:10309C007CC0CF80C700000000003F007F80E1C0F3
:1030AC00C0C0C0C0C0C0C0C0E1C07F803F000A0E1D
:1030BC001C0C000033003300000000003F007F8038
:1030CC00E1C0C0C0C0C0C0C0C0C0E1C07F803F0074
:1030DC000A0A140C00020C000C0000000000FFC0D7
:1030EC00FFC0000000000C000C000A0A140C0000C9
:1030FC003F007F80E3C0C7C0CEC0DCC0F8C0F1C0C9
:10310C007F803F000A10200C0000300038001C00AB
:10311C000C0000000000C0C0C0C0C0C0C0C0C0C017
:10312C00C1C0C3C0E7C07EC03CC00A10200C000068
:10313C00030007000E000C0000000000C0C0C0C05F
:10314C00C0C0C0C0C0C0C1C0C3C0E7C07EC03CC00E
:10315C000A10200C00000C001E003F003300000081
:10316C000000C0C0C0C0C0C0C0C0C0C0C1C0C3C0CF
:10317C00E7C07EC03CC00A0E1C0C000033003300BC
:10318C0000000000C0C0C0C0C0C0C0C0C0C0C1C032
:10319C00C3C0E7C07EC03CC00A14280C00FC03006E
:1031AC0007000E000C0000000000C0C0C0C0C0C072
:1031BC00C0C0C0C0C0C0C0C0E0C07FC03FC000C065
:1031CC0001C03F803F000A12240C00FCC000C0006C
:1031DC00C000C000FF00FF80C1C0C0C0C0C0C0C0E4
:1031EC00C0C0C1C0FF80FF00C000C000C000C00054
:1031FC000A12240C00FC3300330000000000C0C095
:10320C00C0C0C0C0C0C0C0C0C0C0C0C0E0C07FC0D3
:0C321C003FC000C001C03F803F00000028
:043228003101000868
:04322C000D01000888
:1032300001000000100000000024F400C90F000885
:1032400018000020C50F00080840000000800000A2
:04325000400000201A
:04000005080017D107
:00000001FF
